:1003680052656164790D0A004C45445F4F4E004C5C
:100378004544204F4E0D0A004C45445F4F46460009
:100388004C4544204F46460D0A004552524F523ABA
:1003980020556E6B6E6F776E20636F6D6D616E6446
:0303A8000D0A003B
:0503D000011800C1004E
:1000030075985053890F758921758DFD758BFDD2B8
:08001300ACD28EC2ABD2AF22C9
:08001B008F993099FDC2992272
:1003AB008B228A238924AB22AA23A924120026603C
:1003BB00130524E5247002052314F9120026FF12FD
:0503CB00001B80E2228E
:1002BF008B198A1A891BAB19AA1AA91B120026FFC0
:1002CF006028AB1CAA1DA91E120026601D6F6002BC
:1002DF00C3227401251BF51BE4351AF51A74012589
:1002EF001EF51EE4351DF51D80CCAB1CAA1DA91EE5
:1002FF00120026FFAB19AA1AA91B120026B5070375
:05030F00D38001C322B0
:10026600120003C2907BFF7A0379681203AB300059
:10027600FDC20078087C007D007BFF7A037970124E
:1002860001BDF3500AC2907BFF7A0379778022780A
:10029600087C007D007BFF7A0379801201BDF35054
:1002A6000AD2907BFF7A03798880067BFF7A0379EE
:0902B600921203ABE4F51880B5C7
:03002300020314C1
:0E031400C0E0C0D075D000C000C007309838DF
:10032200859921C298E521640D6005E521B40A1280
:10033200E518D39400402174082518F87600D200FD
:100342008013E518C3940F500CAF18051874082FCA
:08035200F8A6218003751800D4
:0E035A00309902C299D007D000D0D0D0E03246
:030000000201DA20
:0C01DA00787FE4F6D8FD75812402022134
:10002600BB010689828A83E0225002E722BBFE02D8
:09003600E32289828A83E493220B
:10003F00E3F5F009E208B5F06D606B80F3E3F5F0DE
:10004F0009E608B5F060605E80F387F009E608B551
:10005F00F054605280F487F009E208B5F04860462A
:10006F0080F488828C8387F009E0A3B5F03860367E
:10007F0080F488828C8387F009E493A3B5F027601E
:10008F002580F388828C83E3F5F009E0A3B5F016A1
:10009F00601480F388828C83E3F5F009E493A3B5B1
:1000AF00F004600280F202016A808580E7808E8012
:1000BF00D2803C8015806C807E809B80B5808B8049
:1000CF00A1804F8070803A02017689828A83ECFA90
:1000DF00E493F5F0A3C8C582C8CCC583CCE493A341
:1000EF00C8C582C8CCC583CCB5F070606E80E1897D
:1000FF00828A83E493F5F0A3E208B5F05E605C803A
:10010F00F289828A83E0F5F0A3E608B5F04D604BE3
:10011F0080F389828A83E0F5F0A3E208B5F03C60B2
:10012F003A80F389828A83E493F5F0A3E608B5F069
:10013F002A602880F2805389828A83ECFAE493F54F
:10014F00F0A3C8C582C8CCC583CCE0A3C8C582C8FC
:10015F00CCC583CCB5F004600280E27FFFB5F0021E
:10016F000F2240027F012289828A83ECFAE0F5F0A8
:10017F00A3C8C582C8CCC583CCE0A3C8C582C8CCF0
:10018F00C583CCB5F0D560D380E389828A83ECFA3E
:10019F00E0F5F0A3C8C582C8CCC583CCE493A3C84F
:1001AF00C582C8CCC583CCB5F0B160AF80E288F012
:1001BF00ED2402B4040050A3F582EB2402B4040032
:0B01CF00509923234582239000B87351
:1001E600020266E493A3F8E493A34003F68001F2C7
:1001F60008DFF48029E493A3F85407240CC8C3331A
:10020600C4540F4420C8834004F456800146F6DFE8
:10021600E4800B01020408102040809003D0E47EA5
:10022600019360BCA3FF543F30E509541FFEE493DD
:10023600A360010ECF54C025E060A840B8E493A3A4
:10024600FAE493A3F8E493A3C8C582C8CAC583CACF
:10025600F0A3C8C582C8CAC583CADFE9DEE780BE87
:0103D5000027
:00000001FF
