:0A018D003F065B4F666D7D077F6F34
:0D015D00C100010C00020A3F3F0208000033
:100148005389F0438901E4F58A758C4CC28DD28CB1
:05015800D2A9D2AF2284
:09018300007F617ECFDEFEDFFC8F
:01018C002250
:0A01780000007F217E42DEFEDFFC66
:01018200225A
:1000F10020B20E12018320B20830B2FD120183B288
:100101000020B31712018320B31130B3FD12018314
:0C011100E4F50C90018D93F50AF50B222B
:0D016B00300005D290C29122C290D29122A4
:10011D0012014812016B1200F112016BE4F5A0D22D
:10012D00B0D2B1850AA0C2B0120178F5A0D2B0D27A
:0B013D00B1850BA0C2B112017880DB7D
:03000B0002009A56
:10009A00C0E0C0F0C083C082C0D0758A00758C4CA5
:1000AA003000390509E50970020508C39414E5080A
:1000BA0094004028750800750900050CE50C946445
:1000CA004003750C00E50C75F00A8490018D93F5D8
:1000DA000AE50C75F00A84E5F093F50BD0D0D082CE
:0700EA00D083D0F0D0E0321A
:0300000002000EED
:0C000E00787FE4F6D8FD758120020055D3
:10001A0002011DE493A3F8E493A34003F68001F2DE
:10002A0008DFF48029E493A3F85407240CC8C333E7
:10003A00C4540F4420C8834004F456800146F6DFB6
:10004A00E4800B010204081020408090015DE47EE8
:10005A00019360BCA3FF543F30E509541FFEE493AB
:10006A00A360010ECF54C025E060A840B8E493A372
:10007A00FAE493A3F8E493A3C8C582C8CAC583CA9D
:10008A00F0A3C8C582C8CAC583CADFE9DEE780BE55
:01016A000094
:00000001FF
