:10000E00000400040D020F0211020D02140611026B
:10001E000F0414040F040D020A0211040D020C0841
:10002E00000208020A040C040D020F0208040D045B
:10003E000F0211021204000211020F020D020F062E
:10004E0000020D020F0211020D02140611020F041E
:10005E0014040F040D020A020A040C020D02080811
:10006E00000208020A040C040D020F0208040D041B
:10007E000F0211021204120211020F020D020D0CD8
:10008E0000040004110212021404140414041404D3
:10009E0014021602140212021104110411041102A8
:1000AE0000021102120211020F020D040D020002D3
:1000BE000D020C020A040C040C020D020F040F02B6
:1000CE0011020F0211020F0811021204140414047B
:1000DE001404140414021602140212021104110460
:1000EE00110200021102120211020F020D020C0285
:1000FE000A040C0200020D020F0208040D02000297
:10010E000F0211020F0400020F020F020D020D0C5E
:06011E0000040004FFFFD5
:10021100204A0E0000F88CF8F3F95BF9B8FA15FAE8
:1002210067FAB9FB04FB4BFB90FBCFFC10FC44FCD1
:1002310079FCACFCDCFD09FD34FD5CFD82FDA6FD15
:10024100C8FDE8FE06FE22FE3DFE56FE6EFE85FE60
:100251009AFEAEFEC1FED3FEE4FEF4FF03020A01E4
:01026100F4A8
:1001B00012029F740E2509F58274003508F583E458
:1001C00093FFF46045750C008F0D0509E509700279
:1001D0000508240EF58274003508F583E493FD7C50
:1001E00000E50BAE0A7802CEC313CE13D8F9FF1286
:1001F00002CB1202B60509E50970020508C28C7F20
:10020000057E001202B6D28C80A9E4F508F50980BB
:01021000A24B
:03000B000202638B
:10026300C0E0C0D075D000C000C004C006C007AF56
:100273000DEF25E0240EF8E6FC08E64C6011EF25AF
:10028300E0240EF8E6FE08E6F58AEEF58CB2A5D07A
:0C02930007D006D004D000D0D0D0E0325C
:1002B600EF1FAC0670011E4C600A7D027CEFDCFE6F
:0402C600DDFC80ECEF
:0102CA002211
:10029F005389F0438901758A18758CFCC28DC28C05
:0702AF00D2A9D2AFC2B922AF
:03000000020124D6
:0C012400787FE4F6D8FD75815702016B6E
:1002CB00EF8DF0A4A8F0CF8CF0A428CE8DF0A42E47
:0202DB00FE2201
:100130000201B0E493A3F8E493A34003F68001F234
:1001400008DFF48029E493A3F85407240CC8C333D0
:10015000C4540F4420C8834004F456800146F6DF9F
:10016000E4800B0102040810204080900211E47E1C
:10017000019360BCA3FF543F30E509541FFEE49394
:10018000A360010ECF54C025E060A840B8E493A35B
:10019000FAE493A3F8E493A3C8C582C8CAC583CA86
:1001A000F0A3C8C582C8CAC583CADFE9DEE780BE3E
:01026200009B
:00000001FF
