:10021E003F065B4F666D7D077F6F777C395E797128
:04022E0001020304C2
:03024D00010800A5
:0B0241000000007F0B7EBEDEFEDFFC35
:01024C00228F
:0E02320000007F037EF27D07DDFEDEFCDFFABA
:01024000229B
:100003007590FEE59054F064F06037120241E5907C
:1000130054F064F0602CE59054E0FFBFE0037F00F0
:1000230022E59054D0FFBFD0037F0122E59054B066
:10003300FFBFB0037F0222E5905470FFBF70037FC0
:1000430003227590FDE59054F064F060371202418D
:10005300E59054F064F0602CE59054E0FFBFE003BA
:100063007F0422E59054D0FFBFD0037F0522E590A3
:1000730054B0FFBFB0037F0622E5905470FFBF70FA
:10008300037F07227590FBE59054F064F06037120C
:100093000241E59054F064F0602CE59054E0FFBF1A
:1000A300E0037F0822E59054D0FFBFD0037F0922ED
:1000B300E59054B0FFBFB0037F0A22E5905470FF70
:1000C300BF70037F0B227590F7E59054F064F060E6
:1000D30037120241E59054F064F0602CE59054E04F
:1000E300FFBFE0037F0C22E59054D0FFBFD0037F16
:1000F3000D22E59054B0FFBFB0037F0E22E590546C
:0B01030070FFBF70037F0F227F1022EF
:10019A00D2B0E4F5A0120003AD07EDC3941050F5F8
:1001AA00BD0F11E4F508D2B0F5A0120003EF6410F8
:1001BA0060E380F6E508C39404501C74092508F826
:1001CA00A605ED90021E93F5A0120232E4F5A005F1
:1001DA0008120003BF10FAE508B404B9E4FCEC9075
:1001EA00022E93FF74092CF8E6B507040CBC04EE42
:1001FA00BC0404C2B08010E4FCC2B0120232D2B015
:10020A001202320CBC03F2E4F508120003EF641088
:04021A00608380F687
:0300000002010EEC
:0C010E00787FE4F6D8FD75810C020155E5
:10011A0002019AE493A3F8E493A34003F68001F260
:10012A0008DFF48029E493A3F85407240CC8C333E6
:10013A00C4540F4420C8834004F456800146F6DFB5
:10014A00E4800B010204081020408090024DE47EF6
:10015A00019360BCA3FF543F30E509541FFEE493AA
:10016A00A360010ECF54C025E060A840B8E493A371
:10017A00FAE493A3F8E493A3C8C582C8CAC583CA9C
:10018A00F0A3C8C582C8CAC583CADFE9DEE780BE54
:0102500000AD
:00000001FF
