:10008F00007EFFC3C3FF7E00000043FFFF0300009D
:10009F000063C7CFDBF363000042DBDBDBFF6600EF
:1000AF00003E46FFFF06060000F6FFD3D3DFDE005B
:1000BF00007EFFDBDBDF4E0000C0C0C7FFF8C000D3
:1000CF0000FFFFDBDBFF7E000072FBDBDBDF7E0070
:0F012D0008090102040810204080010800C100E9
:08013D007F027EF8DEFEDFFA0E
:010145002297
:080146007F147EF8DEFEDFFAF3
:01014E00228E
:10010F002090182000171201462090110508E508CD
:0D011F00C3940A4003E4F508D20022C20098
:01012C0022B0
:1000DF00E4FD74092DF8E6F4F5B075F008E508A411
:1000EF002DF582E435F0F583E582248FF582E583E3
:0F00FF003400F583E493F5A012013D0DBD08D345
:01010E0022CE
:08014F001200DF12010F80F81D
:03000000020003F8
:0C000300787FE4F6D8FD75812002004AE9
:10000F0002014FE493A3F8E493A34003F68001F2B7
:10001F0008DFF48029E493A3F85407240CC8C333F2
:10002F00C4540F4420C8834004F456800146F6DFC1
:10003F00E4800B010204081020408090012DE47E23
:10004F00019360BCA3FF543F30E509541FFEE493B6
:10005F00A360010ECF54C025E060A840B8E493A37D
:10006F00FAE493A3F8E493A3C8C582C8CAC583CAA8
:10007F00F0A3C8C582C8CAC583CADFE9DEE780BE60
:01013C0000C2
:00000001FF
