:0700FD0002080000010A00E7
:1000E6005389F0438901758A66758CFCC28DD28C62
:0700F600D2A9D2AFC2B9226A
:03000B0002009A56
:10009A00C0E0C0D075D000C000C007758A66758CF4
:1000AA00FC0509E50970020508C394E8E50894030C
:1000BA004021750800750900050AE50A94084003FD
:1000CA00750A00AF0AA8077401088002C333D8FC76
:0C00DA00F4F5A0D007D000D0D0D0E03268
:080003001200E675A0FE80FE6C
:0300000002000EED
:0C000E00787FE4F6D8FD75810A020055E9
:10001A00020003E493A3F8E493A34003F68001F2F9
:10002A0008DFF48029E493A3F85407240CC8C333E7
:10003A00C4540F4420C8834004F456800146F6DFB6
:10004A00E4800B01020408102040809000FDE47E49
:10005A00019360BCA3FF543F30E509541FFEE493AB
:10006A00A360010ECF54C025E060A840B8E493A372
:10007A00FAE493A3F8E493A3C8C582C8CAC583CA9D
:10008A00F0A3C8C582C8CAC583CADFE9DEE780BE55
:0101040000FA
:00000001FF
