:0A013C003F065B4F666D7D077F6F85
:0B012500010C00020A3F3F020800002E
:100110005389F0438901E4F58A758C4CC28DD28CE9
:05012000D2A9D2AF22BC
:0A01310000007F217E42DEFEDFFCAD
:01013B0022A1
:1000EE00120110E4F5A0D2B0D2B1850AA0C2B012AE
:1000FE000131F5A0D2B0D2B1850BA0C2B11201313F
:02010E0080E18E
:03000B0002009A56
:10009A00C0E0C0F0C083C082C0D0758A00758C4CA5
:1000AA000509E50970020508C39414E5089400409F
:1000BA0028750800750900050CE50C946440037561
:1000CA000C00E50C75F00A8490013C93F50AE50CE6
:1000DA0075F00A84E5F093F50BD0D0D082D083D0A6
:0400EA00F0D0E03240
:0300000002000EED
:0C000E00787FE4F6D8FD75810C020055E7
:10001A000200EEE493A3F8E493A34003F68001F20E
:10002A0008DFF48029E493A3F85407240CC8C333E7
:10003A00C4540F4420C8834004F456800146F6DFB6
:10004A00E4800B0102040810204080900125E47E20
:10005A00019360BCA3FF543F30E509541FFEE493AB
:10006A00A360010ECF54C025E060A840B8E493A372
:10007A00FAE493A3F8E493A3C8C582C8CAC583CA9D
:10008A00F0A3C8C582C8CAC583CADFE9DEE780BE55
:0101300000CE
:00000001FF
