:10000E00000400040D020F0211020D02140611026B
:10001E000F0414040F040D020A0211040D020C0841
:10002E00000208020A040C040D020F0208040D045B
:10003E000F0211021204000211020F020D020F062E
:10004E0000020D020F0211020D02140611020F041E
:10005E0014040F040D020A020A040C020D02080811
:10006E00000208020A040C040D020F0208040D041B
:10007E000F0211021204120211020F020D020D0CD8
:10008E0000040004110212021404140414041404D3
:10009E0014021602140212021104110411041102A8
:1000AE0000021102120211020F020D040D020002D3
:1000BE000D020C020A040C040C020D020F040F02B6
:1000CE0011020F0211020F0811021204140414047B
:1000DE001404140414021602140212021104110460
:1000EE00110200021102120211020F020D020C0285
:1000FE000A040C0200020D020F0208040D02000297
:10010E000F0211020F0400020F020F020D020D0C5E
:06011E0000040004FFFFD5
:1001B000C100022201F4204A250000F88CF8F3F96E
:1001C0005BF9B8FA15FA67FAB9FB04FB4BFB90FB35
:1001D000CFFC10FC44FC79FCACFCDCFD09FD34FDDB
:1001E0005CFD82FDA6FDC8FDE8FE06FE22FE3DFE8A
:1001F00056FE6EFE85FE9AFEAEFEC1FED3FEE4FE06
:03020000F4FF0305
:10029B0020A0277F0A7E0012032820A01DB2003069
:1002AB00000CE52190000E93B4FF03E4F521200030
:1002BB0004C28C8002D28C30A0FD20A1147F0A7E58
:1002CB000012032820A10AE4F521D200D28C30A120
:0202DB00FD2202
:100204002090247F0A7E0012032820901AD3E5232D
:100214009464E5229400400C749C2523F52374FF18
:100224003522F5223090FD2091237F0A7E001203AF
:1002340028209119C3E52394D0E5229407500B7428
:0E024400642523F523E43522F5223091FD22B6
:1002520012031112029B1202043000F7E5219000F2
:100262000E93FFF4602D8F240521E52193FD7C0080
:10027200E523AE227802CEC313CE13D8F9FF1203C0
:100282003D1203280521C28C7F057E00120328D26D
:090292008C80C0C28CC20080BA4D
:03000B000202DD11
:1002DD00C0E0C0D075D000C000C006E52425E024E4
:1002ED0025F8E6FE08E64E6012E52425E02425F803
:1002FD00E6FE08E6F58AEEF58CB2B0D006D000D059
:04030D00D0D0E0323A
:10032800EF1FAC0670011E4C600A7D027CEFDCFEFC
:04033800DDFC80EC7C
:01033C00229E
:100311005389F0438901758A18758CFCC28DC28C92
:07032100D2A9D2AFC2B9223C
:03000000020124D6
:0C012400787FE4F6D8FD75816E02016B57
:10033D00EF8DF0A4A8F0CF8CF0A428CE8DF0A42ED4
:02034D00FE228E
:10013000020252E493A3F8E493A34003F68001F291
:1001400008DFF48029E493A3F85407240CC8C333D0
:10015000C4540F4420C8834004F456800146F6DF9F
:10016000E4800B01020408102040809001B0E47E7E
:10017000019360BCA3FF543F30E509541FFEE49394
:10018000A360010ECF54C025E060A840B8E493A35B
:10019000FAE493A3F8E493A3C8C582C8CAC583CA86
:1001A000F0A3C8C582C8CAC583CADFE9DEE780BE3E
:0102030000FA
:00000001FF
