:100123004D4C540064796E616D696320666163654B
:1001330000040E1F0E040A0400040A11000000004C
:100143000000000008180402010000000203040874
:100153001000000000000A0A040000000E1F1F0E1A
:100163000E0000000004040404000A1F1F0E040014
:01017300008B
:1000030012023F7BFF7A017934E4FF1201E97BFF9F
:100013007A01793C7F011201E97BFF7A0179447F00
:10002300021201E97BFF7A0179547F031201E97B14
:10003300FF7A01794C7F041201E97BFF7A0179642D
:100043007F051201E97BFF7A01796C7F061201E9D2
:100053007BFF7A01795C7F071201E97BFF7A0179E3
:10006300237D017F011201BA7BFF7A0179277D018C
:100073007F021201BA7FDC7E0512022A12023FE4DC
:10008300FB7D077F01120214E4FB7D0B7F0112024B
:10009300147B057D097F011202147B017D067F021B
:1000A3001202147B017D0C7F021202147B027D0875
:1000B3007F021202147B037D097F021202147B0468
:1000C3007D0A7F021202147F207E0312022A7B061E
:1000D3007D077F011202147B067D0B7F0112021440
:1000E3007B057D097F011202147B017D067F0212CD
:1000F30002147B017D0C7F021202147B027D087FB8
:10010300021202147B077D097F021202147B047D15
:100113000A7F021202147F207E0312022A02008247
:06025300C2918FA0D292BF
:080259007F027EEFDEFEDFFCF8
:01026100227A
:0A026E00C290120253C2920202591C
:0A027800D290120253C29202025902
:10023F007F3812026E7F0C12026E7F0612026E7FE3
:04024F000102026E38
:10021400AC03EDBF0103148002243F4480FF1202AB
:060224006EAF0402027837
:1001BA008F088D098B0A8A0B890CAB0AAA0BA90C2A
:1001CA001201746019AD090509050CE50C700205E8
:0F01DA000B14F9120174FBAF0812021480DC221F
:0601E9008B088A09890A57
:1001EF00EF33333354F84440FF12026EE4FDAB0893
:1001FF00AA09A90A8D8275830012018DFF12027858
:04020F000DBD08EA2F
:0102130022C8
:10022A00EF1FAC0670011E4C600A7D027CEFDCFEFB
:04023A00DDFC80EC7B
:01023E00229D
:0300000002026297
:0C026200787FE4F6D8FD75810C020003E3
:10017400BB010689828A83E0225002E722BBFE0289
:09018400E32289828A83E49322BC
:10018D00BB010CE58229F582E5833AF583E0225027
:10019D0006E92582F8E622BBFE06E92582F8E22271
:0D01AD00E58229F582E5833AF583E493228B
:00000001FF
