:100240006C6173742073617665643A20000D0A0056
:100250006C6173742073617665643A204E6F20641C
:100260006174610D0A00506C656173652073656E81
:10027000643A0D0A0053617665643A200046696E5F
:060280007368210D0A0065
:05034A00015300C10099
:100026001202A91203277FA0120286120317E4FF09
:100036001202861203171203277FA11202861203E9
:10004600171200038F09D201120306120336E509BF
:10005600D394004053E5099432504D7BFF7A0279E0
:10006600401202F3E4F508E508C39509503212037D
:10007600277FA0120286120317E50804FF120286E4
:100086001203171203277FA112028612031712000A
:1000960003120342D201120306120336050880C773
:1000A6007BFF7A02794D80067BFF7A027950120235
:1000B600F37BFF7A0279661202F33000FDC200126A
:1000C60003277FA0120286120317E4FF120286128C
:1000D6000317AF531202861203171203367F057EEB
:1000E600001202DEE4F508E508C39553503012030A
:1000F600277FA0120286120317E50804FF12028664
:1001060012031774212508F8E6FF12028612031758
:100116001203367F057E001202DE050880C97BFFCA
:100126007A0279751202F3E4F508E508C39553508F
:100136000E74212508F8E6FF120342050880EB7BC2
:10014600FF7A02794D1202F3E4F5537BFF7A0279C6
:070156007D1202F30200C05C
:030023000201E9EE
:0D01E900C0E0C0D075D000C000C006C00747
:1001F60030983CC298AF998F993099FDC299EF64B7
:100206000D6003BF0A18E553D394004022E55394CA
:1002160032500774212553F87600D2008011E55339
:0F022600C39431500AAE53055374212EF8A60726
:0B023500D007D006D000D0D0D0E032BF
:1002A900759850E589540F4420F589758DFD858D24
:0C02B9008BD28ED2ACD2AFC299C2982278
:080342008F993099FDC2992248
:1002F3001202C5FF600C120342740129F9E43AFAB1
:0303030080EE2267
:1002DE00EF1FAC0670011E4C600A7D027CEFDCFE47
:0402EE00DDFC80ECC7
:0102F20022E9
:040350007F02DFFE4B
:010354002286
:0F032700D290D291120350C290120350C2912271
:0C033600C290D291120350D290020350EA
:02028600AE07C1
:10028800E4FDC291120350EE30E703D38001C3921C
:1002980090EE25E0FED2911203500DBD08E4C29104
:0102A8002233
:10000300E4FED290FDD291120350EE25E0FE309033
:0F00130003430601C2911203500DBD08E8AF066A
:0100220022BB
:0F031700D290D291120350A2909201C291A201F2
:0103260022B4
:10030600C291A2019290120350D291120350C2914F
:0103160022C4
:0300000002015D9D
:0C015D00787FE4F6D8FD7581530201A400
:1002C500BB010689828A83E0225002E722BBFE0237
:0902D500E32289828A83E493226A
:10016900020026E493A3F8E493A34003F68001F286
:1001790008DFF48029E493A3F85407240CC8C33397
:10018900C4540F4420C8834004F456800146F6DF66
:10019900E4800B010204081020408090034AE47EA9
:1001A900019360BCA3FF543F30E509541FFEE4935B
:1001B900A360010ECF54C025E060A840B8E493A322
:1001C900FAE493A3F8E493A3C8C582C8CAC583CA4D
:1001D900F0A3C8C582C8CAC583CADFE9DEE780BE05
:01034F0000AD
:00000001FF
