:1000AF000A153F065B4F666D7D077F6F05107679EA
:0D00BF0038383F0808000102030405060759
:0B00CD000000007F0B7EBEDEFEDFFCAB
:0100D8002205
:10008F00E4FDFC74082DF8E6F5B074102DF8E6F5D4
:0F009F00A01200CD0DBD00010CED64054C70E406
:0100AE00222F
:0500D90012008F80FB06
:03000000020003F8
:0C000300787FE4F6D8FD75811E02004AEB
:10000F000200D9E493A3F8E493A34003F68001F22E
:10001F0008DFF48029E493A3F85407240CC8C333F2
:10002F00C4540F4420C8834004F456800146F6DFC1
:10003F00E4800B01020408102040809000AFE47EA2
:10004F00019360BCA3FF543F30E509541FFEE493B6
:10005F00A360010ECF54C025E060A840B8E493A37D
:10006F00FAE493A3F8E493A3C8C582C8CAC583CAA8
:10007F00F0A3C8C582C8CAC583CADFE9DEE780BE60
:0100CC000033
:00000001FF
