:100462000B2DC0F9A4B0999282F88090BF0839018F
:1004720002040810204080082500000A00000A003B
:040482000001410034
:10036D00AE21AF227C007D0A120027AB07AA06E55D
:10037D003875F00A84F525E53875F00A8485F02680
:10038D00E52475F00A84F528E52475F00A8485F0D6
:10039D00297C007D0A1200278F2BAE02AF037C0053
:0703AD007D0A1200278D2CD0
:0103B4002226
:10018800AF247E007C037DE812015BC004A905AAA8
:1001980006AB07AF387E007CEA7D6012015BD000B9
:1001A800EF2BFBEE3AFAED39F9EC38F8E4FCFDEB0D
:1001B8002522FFEA3521FEED39FDEC38FCE47B0A07
:1001C800FAF9F81200B88F0B8E0A8D098C08E47FB3
:1001D800B67E03FDFCAB0BAA0AA909A808C3120145
:1001E8004A4019E47F1A7E04FDFCA808D312014A8C
:1001F800500AD290C291C29275410122E47F527E88
:1002080003FDFCAB0BAA0AA909A808C312014A40BE
:1002180018E47FB67E03FDFCA80812014A500AD2F2
:1002280090D291C29275410222E47FEE7E02FDFCDB
:10023800AB0BAA0AA909A808C312014A4017E47F10
:10024800527E03FDFCA80812014A5009D290D291AF
:05025800D29275410384
:01025D00227E
:1003B50020B22512051D20B23CB200200015120105
:1003C500881203FBAF411204397F0D1205157F0A10
:1003D50012051520B21F80FB20B31A12051D20B38C
:1003E50014C200E4F538F524F521F522C290C29136
:0603F500C29230B3FD22AC
:1004CE00E4F590F5A0F538F524F521F522C200F5F6
:0F04DE00231205001204ED12036D1203B580FB0B
:03000B000202EA04
:1002EA00C0E0C0F0C0D075D000C000C002C003C0DA
:1002FA0004C005C006C007758CFC758A6675A00027
:10030A0074252523F8E6242DF8E6F580743925238B
:10031A00F8E6F5A0E523045407F52330002D05225D
:10032A00E52270020521C394E8E5219403401C7577
:10033A0021007522000524E524943C400E75240012
:10034A000538E538943C400375380012036DD00730
:10035A00D006D005D004D003D002D000D0D0D0F03F
:03036A00D0E032AE
:08051D007F6C7E91DEFEDFFC25
:0105250022B3
:1004ED005389F0438901758CFC758A66D2A9D2AF08
:0304FD00D28C227C
:1004AC00457863656C6C656E742100476F6F6421D1
:1004BC00005061737300556E7175616C6966696586
:0204CC006400CA
:1005000075985053890F438920758DFD758BFDD2E9
:020510008E2239
:030512002430FF93
:080515008F993099FDC2992273
:1003FB00E525120512E5261205127F3A120515E5C1
:10040B00282430FF120515E5292430FF1205157F2E
:10041B002E120515E52B2430FF120515E52C243083
:0E042B00FF1205157F0D1205157F0A0205153B
:100487008B088A09890AAB08AA09A90A12000E6013
:1004970013050AE50A7002050914F912000EFF1286
:0504A700051580E222B2
:10043900BF03087BFF7A0479AC801ABF02087BFFEF
:100449007A0479B7800F7BFFBF01067A0479BD80F2
:09045900047A0479C2120487221E
:0300000002025E9B
:0C025E00787FE4F6D8FD7581410202A50E
:10000E00BB010689828A83E0225002E722BBFE02F0
:09001E00E32289828A83E4932223
:10002700BC000BBE0029EF8DF084FFADF022E4CCBD
:10003700F875F008EF2FFFEE33FEEC33FCEE9DEC86
:10004700984005FCEE9DFE0FD5F0E9E4CEFD22EDCC
:10005700F8F5F0EE8420D21CFEADF075F008EF2F16
:10006700FFED33FD4007985006D5F0F222C398FD07
:050077000FD5F0EA22A4
:10007C0075F008758200EF2FFFEE33FECD33CDCC3B
:10008C0033CCC58233C5829BED9AEC99E5829840BE
:10009C000CF582EE9BFEED9AFDEC99FC0FD5F0D69B
:1000AC00E4CEFBE4CDFAE4CCF9A88222B800C1B9C5
:1000BC000059BA002DEC8BF084CFCECDFCE5F0CB03
:1000CC00F97818EF2FFFEE33FEED33FDEC33FCEB3C
:1000DC0033FB10D703994004EB99FB0FD8E5E4F9F7
:1000EC00FA227818EF2FFFEE33FEED33FDEC33FCE4
:1000FC00C933C910D7059BE99A4007EC9BFCE99AD8
:10010C00F90FD8E0E4C9FAE4CCFB2275F010EF2F1C
:10011C00FFEE33FEED33FDCC33CCC833C810D7071C
:10012C009BEC9AE899400AED9BFDEC9AFCE899F857
:0E013C000FD5F0DAE4CDFBE4CCFAE4C8F922EA
:10014A00EB9FF5F0EA9E42F0E99D42F0E89C45F00B
:01015A002282
:10015B00EC8EF0A4CCC5F0CCCDF8EFA4CEC5F02D31
:10016B00FDE43CFCE8A42EC8C5F03DFDE43CFCEFEF
:0D017B00A4FFE5F028FEE43DFDE43CFC227D
:10026A000204CEE493A3F8E493A34003F68001F2D8
:10027A0008DFF48029E493A3F85407240CC8C33395
:10028A00C4540F4420C8834004F456800146F6DF64
:10029A00E4800B0102040810204080900462E47E8E
:1002AA00019360BCA3FF543F30E509541FFEE49359
:1002BA00A360010ECF54C025E060A840B8E493A320
:1002CA00FAE493A3F8E493A3C8C582C8CAC583CA4B
:1002DA00F0A3C8C582C8CAC583CADFE9DEE780BE03
:010486000075
:00000001FF
