:10018F00AE071FEE600B007E027DC7DDFEDEFC803A
:01019F00EF70
:0101A000223C
:0A01A100120003E4FF1200B280F91F
:0300230002010EC9
:10010E00C0E0C0F0C083C082C0D075D000C000C0B7
:10011E0001C002C003C004C005C006C00730980766
:10012E00E4FF1200B2C298D007D006D005D004D09A
:10013E0003D002D001D000D0D0D082D083D0F0D066
:02014E00E0329D
:1000030075985043878053890F438920758BF37507
:0B0013008DF3C2ABD28ED2AFD2AC2274
:0801B5008F993099FDC29922D7
:10016900120150FF600C1201B5740129F9E43AFA41
:0301790080EE22F3
:0A01AB007F0D1201B57F0A0201B5B5
:10017C0010083F065B4F666D7D077F6F777C395E9D
:02018C00797187
:1000B200EF24D0B40A0050539000C875F003A4C5D1
:1000C2008325F0C583730200E60200EA0200EE0215
:1000D20000F20200F60200FA0200FE020102020130
:1000E2000602010A8508A0228509A022850AA0220B
:1000F200850BA022850CA022850DA022850EA022B0
:0C010200850FA0228510A0228511A022EC
:03000000020026D5
:0C002600787FE4F6D8FD75811702006DAC
:10015000BB010689828A83E0225002E722BBFE02AD
:09016000E32289828A83E49322E0
:100032000201A1E493A3F8E493A34003F68001F242
:1000420008DFF48029E493A3F85407240CC8C333CF
:10005200C4540F4420C8834004F456800146F6DF9E
:10006200E4800B010204081020408090017CE47EB1
:10007200019360BCA3FF543F30E509541FFEE49393
:10008200A360010ECF54C025E060A840B8E493A35A
:10009200FAE493A3F8E493A3C8C582C8CAC583CA85
:1000A200F0A3C8C582C8CAC583CADFE9DEE780BE3D
:01018E000070
:00000001FF
