:04013F00C101C10039
:07011100F4F5A07F647E00FD
:10011800E4FDFCC3ED9FEC9E5015E4FAFB0BBB001D
:0F012800010AEB64784A70F50DBD00010C80E40C
:0101370022A5
:070138007F147E0002011894
:1000BF00E4F9A8017401088002C333D8FC120111BE
:1000CF0020901112013820900BC20075A0FF3090C4
:0800DF00FD02013809B908DA3D
:0100E70022F6
:1000E800E4F9A8017480088002C313D8FC12011136
:1000F80020901112013820900BC20075A0FF30909B
:08010800FD02013809B908DA13
:0101100022CC
:10008F0075A0FF20901A120138209014200006D27C
:10009F0000B2018005C20075A0FF3090FD1201383B
:1000AF003000E02001051200BF80D81200E880D395
:03000000020003F8
:0C000300787FE4F6D8FD75812002004AE9
:10000F0002008FE493A3F8E493A34003F68001F278
:10001F0008DFF48029E493A3F85407240CC8C333F2
:10002F00C4540F4420C8834004F456800146F6DFC1
:10003F00E4800B010204081020408090013FE47E11
:10004F00019360BCA3FF543F30E509541FFEE493B6
:10005F00A360010ECF54C025E060A840B8E493A37D
:10006F00FAE493A3F8E493A3C8C582C8CAC583CAA8
:10007F00F0A3C8C582C8CAC583CADFE9DEE780BE60
:0101430000BB
:00000001FF
