:1000D80048656C6C6F203531212048656C6C6F2049
:0600E8005147210D0A0042
:05011900010B00C10014
:1000EE00759850438920758BFD758DFDC2ACD2AFCE
:0300FE00D28E227D
:0E01010000007F057E347DC3DDFEDEFCDFFAEC
:01010F0022CD
:09011000850B993099FDC299227A
:03008F001200EE6E
:100092007508FF750900750AD8AB08AA09A90A12E2
:1000A20000BF6014050AE50A7002050914F912007E
:0B00B200BFF50B12011080E1120101EC
:0200BD0080D3EE
:03000000020003F8
:0C000300787FE4F6D8FD75812002004AE9
:1000BF00BB010689828A83E0225002E722BBFE023F
:0900CF00E32289828A83E4932272
:10000F0002008FE493A3F8E493A34003F68001F278
:10001F0008DFF48029E493A3F85407240CC8C333F2
:10002F00C4540F4420C8834004F456800146F6DFC1
:10003F00E4800B0102040810204080900119E47E37
:10004F00019360BCA3FF543F30E509541FFEE493B6
:10005F00A360010ECF54C025E060A840B8E493A37D
:10006F00FAE493A3F8E493A3C8C582C8CAC583CAA8
:10007F00F0A3C8C582C8CAC583CADFE9DEE780BE60
:01011E0000E0
:00000001FF
