:100206003F065B4F666D7D077F6F777C395E797140
:0402160001020304DA
:03023200010800C0
:080229007F6C7E91DEFEDFFC1C
:0102310022AA
:0E021A00E4FF7E6C7D91DDFEDEFC0FBF32F452
:0102280022B3
:100003007590FEE59054F064F06037120229E59094
:1000130054F064F0602CE59054E0FFBFE0037F00F0
:1000230022E59054D0FFBFD0037F0122E59054B066
:10003300FFBFB0037F0222E5905470FFBF70037FC0
:1000430003227590FDE59054F064F06037120229A5
:10005300E59054F064F0602CE59054E0FFBFE003BA
:100063007F0422E59054D0FFBFD0037F0522E590A3
:1000730054B0FFBFB0037F0622E5905470FFBF70FA
:10008300037F07227590FBE59054F064F06037120C
:100093000229E59054F064F0602CE59054E0FFBF32
:1000A300E0037F0822E59054D0FFBFD0037F0922ED
:1000B300E59054B0FFBFB0037F0A22E5905470FF70
:1000C300BF70037F0B227590F7E59054F064F060E6
:1000D30037120229E59054F064F0602CE59054E067
:1000E300FFBFE0037F0C22E59054D0FFBFD0037F16
:1000F3000D22E59054B0FFBFB0037F0E22E590546C
:0B01030070FFBF70037F0F227F1022EF
:10019A00D2B0E4F5A0120003EFC3941050F7BF0FDA
:1001AA0009E4F508D2B0F5A080EBE508C394045041
:1001BA001674092508F8A607EF90020693F5A0120F
:1001CA00021AE4F5A00508E508B404C9E4FCEC90B9
:1001DA00021693FF74092CF8E6B507040CBC04EE6A
:1001EA00BC0404C2B08010E4FCC2B012021AD2B03D
:0C01FA0012021A0CBC03F2E4F508809914
:0300000002010EEC
:0C010E00787FE4F6D8FD75810C020155E5
:10011A0002019AE493A3F8E493A34003F68001F260
:10012A0008DFF48029E493A3F85407240CC8C333E6
:10013A00C4540F4420C8834004F456800146F6DFB5
:10014A00E4800B0102040810204080900232E47E11
:10015A00019360BCA3FF543F30E509541FFEE493AA
:10016A00A360010ECF54C025E060A840B8E493A371
:10017A00FAE493A3F8E493A3C8C582C8CAC583CA9C
:10018A00F0A3C8C582C8CAC583CADFE9DEE780BE54
:0102350000C8
:00000001FF
